:03000000028C96D9
:08001B000000000000027FE07C
:080023000000000000027FE074
:08002B000000000000027FE06C
:107FE000C2AFC298C299C2CF758107907FF3C08299
:097FF000C08332E4C0E0C0E032BD
:0F8C960075D000787FE4F6D8FD75814B0280C061
:107B1800101112131415161718191A1B1C1D1E1FE5
:107B2800202122232425262728292A2B2C2D2E2FD5
:107B3800303132333435363738393A3B3C3D3E3FC5
:107B4800404142434445464748494A4B4C4D4E4FB5
:107B5800505152535455565758595A5B5C5D5E5FA5
:107B680060616263646500000000000000000000BE
:107B780000000000E1E2E3E4E5E6E7E8E9EAEBEC2F
:107B8800EDEED1D2D3D4D5D6D7D8D9DADBDCDDDE49
:107B9800B1B2B3B4B5B6B7B8B9BABBBCBDBE7172F1
:107BA800737475760000800080058009800C801150
:107BB80080148018801D802180038006800A800F31
:107BC80080128017801B801E80224201CCCD420388
:107BD800666641E2CCCD42003333420E999A421098
:107BE8006666421233334214000041E2CCCD4200B3
:107BF80033334201CCCD42036666420E999A421055
:107C0800666642123333421400000304010205067B
:107C18000708010203040005060701020304000621
:107C280007051D1E1F20212223242D2E2F3031321F
:027C38003334E3
:1080C0001281D9B295053C128CCB123DE5122C8B56
:1080D000124BC47FD07E07128C83126E6A124FC47B
:1080E000128AC5128A36D3E53C940374809480408A
:1080F0000CE4F53C125346125F7C1259FA127EE9E9
:10810000124757128C11128A7F12132C128CCBB289
:1081100095128B0A800CAF3DC3EF946474809480F9
:10812000500585233D80EFC2AF749C2523F5239035
:10813000887A122B7AEF2401FFE43EFEE43DFDE451
:0D8140003CFC90887A122BC2D2AF0280C3A3
:048C7F007FB87E0B31
:108C8300E4FDFCC3ED9FEC9E5008000DBD00010CFC
:028C930080F16E
:018C950022BC
:103DE500754101754288754383754401754589752B
:103DF500464B7B017A8579AF12814DAB07EB645554
:103E0500700C9085AFF0908883F090894BF07541E8
:103E15000175428275437075440175458275467515
:103E25007B017A8779A412814DAB07EB6455700C41
:103E35009087A4F0908270F0908275F075410175BD
:103E4500428875436E7544017545887546717B01D9
:103E55007A85799F12814DAB07EB6455700C90857F
:103E65009FF090886EF0908871F0754101754289D8
:103E75007543767544017545897546A77B017A8535
:103E850079B112814DAB07EB6455700C9085B1F09B
:103E9500908976F09089A7F0754101754282754346
:103EA5005E7544017545827546647B017A8879584B
:103EB50012814DAB07EB6455700E9088587405F070
:103EC50090825EF0908264F075410175428275437F
:103ED500637544017545827546697B017A88795A0F
:103EE50012814DAB07EB6455700E90885A7405F03E
:103EF500908263F0908269F0754101754280754347
:103F0500147544017545807546207B017A88794092
:103F150012814DAB07EB6455700E9088407405F027
:103F2500908014F0908020F07541017542807543B2
:103F35001F7544017545807546227B017A88794352
:103F450012814DAB07EB6455700E9088437405F0F4
:103F550090801FF0908022F0754101754284754371
:103F65001775440175458475461D7B017A88794529
:103F7500127895AB07EB6455701E908845122BCED1
:103F85003D75C28F908417122BCE3D75C28F9084DC
:103F95001D122BCE3D75C28F754101754282754349
:103FA5005A75440175458275465F7B017A8579DBD3
:103FB500127895AB07EB6455701E9085DB122BCEFE
:103FC5003C23D70A90825A122BCE3C23D70A9082E3
:103FD5005F122BCE3C23D70A754101754284754388
:103FE5001C7544017545847546257B017A88794A97
:103FF50012814DAB07EB6455700E90884A7466F0DC
:1040050090841CF0908425F07541017542867543B6
:10401500DB7544017545877546A87B017A82795918
:1040250012814DAB07EB6455700E90825974FFF009
:104035009086DBF09087A8F0754101754282754343
:10404500767544017545827546787B017A8779A92D
:10405500128000AB07EB6455701274FF9087A9F0CE
:10406500A3F0908276F0A3F0A3F0A3F0754101755B
:1040750042897543AA7544017545897546B97B0121
:104085007A8579B2128000AB07EB6455701474FF22
:104095009085B2F0A3F09089AAF0A3F09089B9F0C9
:1040A500A3F07541017542897543B775440175459E
:1040B500807546007B017A8579B4128000AB07EBE9
:1040C5006455701474FF9085B4F0A3F09089B7F02F
:1040D500A3F0908000F0A3F075410175428575430A
:1040E5009A7544017545857546A07B017A8879578F
:1040F50012814DAB07EB6455700E90885774AAF08A
:1041050090859AF09085A0F07541017542857543BB
:10411500AC7544017545857546AE7B017A8879761F
:1041250012814DAB07EB6455700E9088767455F08F
:104135009085ACF09085AEF0754101754288754368
:10414500617544017545887546677B017A84798B6D
:1041550012814DAB07EB6455700E90848B7455F04E
:10416500908861F0908867F07541017542857543C7
:10417500A27544017545857546A67B017A88795DEA
:10418500127895AB07EB6455701E90885D122BCEA7
:10419500408666669085A2122BCE4086666690851F
:1041A500A6122BCE40866666754101754288754319
:1041B5000675440175458875460C7B017A827983BD
:1041C500127895AB07EB6455701E908590122BCE37
:1041D50040600000908863122BCE406000009088FC
:1041E50069122BCE40600000754101754288754308
:1041F500637544017545887546697B017A857990B3
:10420500127895AB07EB6455701E908590122BCEF6
:1042150000000000908863122BCE000000009088FB
:1042250069122BCE0000000075410175428275436D
:104235007B75440175458275467F7B017A8779DBFD
:10424500127895AB07EB6455701E9087DB122BCE69
:104255004217333390827B122BCE42173333908231
:104265007F122BCE42173333754101754284754356
:10427500217544017545847546877B017A88794C9B
:10428500127895AB07EF6455701E90884C122BCEB3
:1042950041D80000908421122BCE41D80000908493
:0842A50087122BCE41D8000066
:0142AD0022EE
:1081D900C2AFB29590F80074FFF0C294D294D2B0B5
:1081E900D290D2B1D29690E400E4F090E800F090F9
:1081F900EC00F090F000F0D29230920D9085AFE053
:1082090004F0E0540FF0E08005E49085AFF0908829
:1082190083F090894BF0123279B295122C8BB2957A
:10822900124BC4128CCB128CCB1274107E897F4DE9
:10823900126C7612723A7E847FB41242AE126A814F
:10824900128C661282637F007EC0128267128C2FA5
:08825900128BF5D2AF0286384A
:10327900E4F523F52E908254F0908021F090814F4F
:10328900F09089A9F09089ACF09087A4F0908270B1
:10329900F0908275F09085B1F0908976F09089A7C9
:1032A900F090859FF090886EF0908871F090826E12
:1032B90074AAF09088827455F090894AF0E490805D
:1032C90012F090801EF090840A122BCE00000000AC
:1032D900908271122BCE000000009087E1122BCE54
:1032E900000000009087E5122BCE000000009088B6
:1032F90002122BCE00000000908150122BCE00004C
:103309000000908255122BCE0000000090828B1293
:103319002BCE000000009086D2122BCE00000000B8
:103329009086D6122BCE00000000908265122BCE1B
:103339000000000090887E122BCE000000009087CC
:10334900AC7455F0908872F09085BFF09087FFF0CB
:103359009086DA7405F09087A7F090885C7455F030
:10336900E4FBFAAE02EB7802C333CE33CED8F924AC
:1033790010F58274883EF583122BCE00000000748C
:10338900AD2BF58274893AF583E4F00BBB00010A91
:10339900EB640A4A70CD9088587405F090825EF00B
:1033A900908264F090885AF0908263F0908269F07C
:1033B900908840F0908014F0908020F0908843F03D
:1033C90090801FF0908022F09085AAF0A3F0E4FA93
:1033D900FB744D2BF58274893AF583E4F074D82B8C
:1033E900F58274833AF583E4F00BBB00010AEB64C0
:1033F900294A70DDE4FAFBEB2420FF74002BF582E7
:1034090074963AF583EFF00BBB00010AEB64804A2E
:1034190070E59088387455F0E490886DF0FB7ADC9B
:103429009084B4E4F0A3DAFCE4908006F0A3F0A35E
:10343900F0908013F090826AF0A3F0A3F0A3F090CB
:1034490085B67455F0E4908842F09087ABF0FAFBAA
:10345900EB25E0FFEA33FE74772FF58274893EF598
:1034690083E4F074782FF58274893EF583E4F00BD8
:10347900BB00010AEB64184A70D6E49089C4F0FADB
:10348900FBE4F53EF53FE53F25E0FFE53E33FE90E1
:10349900980075F00CEB122BFFEA75F00CA425834C
:1034A900F583E5822FF582E5833EF583E4F0A3F009
:1034B900053FE53F7002053E6406453E70C80BBBFB
:1034C90000010AEB64184A70B89085B07455F0E4AD
:1034D900FB7A087824E4F608DAFCE4FB7A0C908598
:1034E900CFE4F0A3DAFCE4F520F53B90886FF0A374
:1034F900F0908873F0A3F09085C8F0A3F0908888C5
:10350900122BCE000000009083D0122BCE000000B9
:10351900009083D4122BCE00000000908884122BD7
:10352900CE00000000E4908598F0A3F090880AF09E
:10353900A3F0908800F0A3F09085C6F0A3F09088DE
:1035490045122BCE3D75C28F908417122BCE3D7537
:10355900C28F90841D122BCE3D75C28F9085DB12D0
:103569002BCE3C23D70A90825A122BCE3C23D70A62
:1035790090825F122BCE3C23D70A90885D122BCE06
:10358900408666669085A2122BCE40866666908537
:10359900A6122BCE40866666908283122BCE408976
:1035A900999A908806122BCE4089999A90880C1284
:1035B9002BCE4089999A908590122BCE40600000BD
:1035C900908863122BCE40600000908869122BCE40
:1035D900406000009087DB122BCE42173333908274
:1035E9007B122BCE4217333390827F122BCE421798
:1035F900333390884C122BCE41D80000908421128D
:103609002BCE41D80000908487122BCE41D80000E0
:10361900E490826FF09089A8F0FAFBEB25E0FFEACD
:1036290033FE74262FF58274843EF583E4F0A3F00B
:103639000BBB00010AEB64304A70E09085CE7455EB
:10364900F09085E1F0E4FAFBEB25E0FFEA33FE7444
:10365900E92FF58274873EF583E4F0A3F00BBB00F4
:10366900010AEB640B4A70E0E490841BF0FB7A28B2
:1036790090848CE4F0A3DAFCE4FB7A099089BBE43A
:10368900F0A3DAFC74FF9087A9F0A3F0908276F09A
:10369900A3F0A3F0A3F0E4908859F090885BF09030
:1036A9008862F0908868F0908852122BCE431600F9
:1036B90000908594122BCE4316000090859B122B07
:1036C900CE43160000908002122BCE00000000901D
:1036D90085BA122BCE00000000908287122BCE43B0
:1036E900160000E4FFFE7D7A7C44908287122B96B7
:1036F900122781E4FBFA7940784012288A1229DEE0
:10370900AC06EC9085C0F0EFA3F0E4A3F0A3F0A31E
:10371900F0A3F090884A7466F090841CF090842598
:10372900F0E49083CFF09085ADF090825974FFF06A
:103739009086DBF09087A8F0E49087ADF0A3F09035
:1037490087DFF0A3F074FF9085B2F0A3F09089AA07
:10375900F0A3F09089B9F0A3F09085B4F0A3F090AC
:1037690089B7F0A3F0908000F0A3F090885774AA6D
:10377900F090859AF09085A0F09088767455F09035
:1037890085ACF09085AEF090848BF0908861F090D4
:103799008867F090894CF09084867409F0E4FAFB0C
:1037A90074392BF58274883AF583E4F0743C2BF56F
:1037B9008274883AF583E4F00BBB00010AEB6403D9
:1037C9004A70DDE49085B7F0A3F0A3F09085BEF0D0
:1037D9009085CAF0A3F0A3F0A3F090883F7455F048
:1037E900908841F0908844F0908849F090884BF097
:1037F900908850F0A3F0908856F0E4FAFB74092BF6
:10380900F58274803AF583E4F074152BF58274809F
:103819003AF583E4F074012BF58274843AF58374E4
:1038290055F0740E2BF58274843AF5837455F00BB8
:10383900BB00010AEB64094A70C3E49087A5F0A3B1
:10384900F09085DFF0A3F090887A122BCE0000006B
:01385900006E
:01385A00224B
:107E2400907C1EE49390E400F0128C7FB295907CD9
:107E34001EE49390EC00F0128C83B295907C26E4BF
:107E44009390E800F0128C83B295907C26E4939092
:107E5400F000F0128C83B2957F21128C4B128C7F30
:107E6400B2957F25128C4B128C7FB2957F29128C90
:107E74004B128C7FB2957F2D128C4B128C7FB29556
:107E84007F23128C4B128C7FB2957F27128C4B125E
:107E94008C7FB2957F2B128C4B128C7FB2957F2FE7
:107EA400128C4B128C7FB2957F08128C4B128C7FF4
:107EB400B2957F18128C4B128C7FB2957F09128C6D
:107EC4004B128C7FB2957F10128C4B128C7FB29523
:107ED4007F19128C4B128C7FB2957F20128C4B121F
:057EE4008C7FB2952225
:06826100C2A87F007EA010
:04826700AB07AA06B1
:10826B008B828A837441F07F057E00128C83A3740A
:10827B00ECF074042BF582E43AF583749BF07405EF
:10828B002BF582E43AF58374D4F074062BF582E473
:10829B003AF583E4F074072BF582E43AF583741C0A
:1082AB00F074082BF582E43AF583744AF0741F2BB3
:1082BB00F582E43AF5837404F08B828A837446F07A
:1082CB007F01128C837446F0A3A3E0AC02AD038D47
:0C82DB00828C83A3A3A3E07F0A028C83A3
:108C660075B806C288C28A758901758CB8E4F58A1A
:098C7600D28CD2A9D2A8D2AA2204
:102C8B001256A9E4F53EC3E53E94567480948050E9
:102C9B0020E53E907B1893FF1279E0E53E25E0247A
:102CAB00DCF582E43486F583EEF0A3EFF0053E808D
:102CBB00D5908726E0FCA3E0FDE41229A57BCD7A15
:102CCB00CC79CC783C122781C004C005C006C00764
:102CDB00908722E0FCA3E0FDE41229A57BCD7ACC02
:102CEB0079CC783C122781D003D002D001D00012CE
:102CFB0026909087E1122BC2E4FFFEFDFC9087E14A
:102D0B00122B9674C0122929500A9087E1122BCEF0
:102D1B0000000000908728E0FCA3E0FDE41229A549
:102D2B007BCD7ACC79CC783C122781C004C005C00E
:102D3B0006C007908724E0FCA3E0FDE41229A57BE5
:102D4B00CD7ACC79CC783C122781D003D002D0013C
:102D5B00D0001226909087E5122BC2E4FFFEFDFCFB
:102D6B009087E5122B9674C0122929500A9087E59B
:102D7B00122BCE000000009087E5122B7A9087E192
:102D8B00122B96122690908271122BC29086E0E045
:102D9B00FCA3E0FDE41229A57BCD7ACC79CC783C61
:102DAB00122781C004C005C006C0079086DCE0FC7A
:102DBB00A3E0FDE41229A57BCD7ACC79CC783C122B
:102DCB002781D003D002D001D000122690C004C0BE
:102DDB0005C006C0079086DEE0FCA3E0FDE41229E7
:102DEB00A57BCD7ACC79CC783C122781D003D0024D
:102DFB00D001D000122690C004C005C006C00790B9
:102E0B0086E2E0FCA3E0FDE41229A57BCD7ACC7928
:102E1B00CC783C122781D003D002D001D0001226EF
:102E2B009090840A122BC2E4FFFEFDFC90840A12E0
:102E3B002B9674C0122929500A90840A122BCE00AB
:102E4B0000000090870EE0FCA3E0FDE41229A57BB7
:102E5B00CD7ACC79CC783C122781908150122BC241
:102E6B00E4FFFEFDFC908150122B9674C0122929B1
:102E7B00500A908150122BCE00000000908712E078
:102E8B00FCA3E0FDE41229A57BCD7ACC79CC783C70
:102E9B00122781908255122BC2E4FFFEFDFC90821B
:102EAB0055122B9674C0122929500A908255122B59
:102EBB00CE00000000908255122B7A908150122B7D
:102ECB0096122690908802122BC29086E4E0FCA307
:102EDB00E0FDE41229A57BCD7ACC79CC783C122786
:102EEB00819086D2122BC2E4FFFEFDFC9086D2129B
:102EFB002B9674C0122929500A9086D2122BCE0021
:102F0B000000009086E8E0FCA3E0FDE41229A57B1D
:102F1B00CD7ACC79CC783C1227819086D6122BC2F5
:102F2B00E4FFFEFDFC9086D6122B9674C012292965
:102F3B00500A9086D6122BCE000000009086D61237
:102F4B002B7A9086D2122B9612269090828B122B74
:102F5B00C290873CE0FCA3E0FDE41229A57BCD7A6F
:102F6B00CC79CC783C122781908265122BC2E4FF7E
:102F7B00FEFDFC908265122B9674C0122929500A13
:102F8B00908265122BCE00000000908720E0FCA3FE
:102F9B00E0FDE41229A57BCD7ACC79CC783C1227C5
:102FAB008190887E122BC2E4FFFEFDFC90887E127E
:102FBB002B9674C0122929500A90887E122BCE00B2
:102FCB000000009086E6E0FEA3E0FF9085C8EEF0DF
:102FDB00A3EFF0FDAC06E41229A57BCD7ACC79CC1E
:102FEB00783C122781908888122BC2E4FFFEFDFCEF
:102FFB00908888122B9674C0122929500A908888C1
:10300B00122BCE00000000908764E0FCA3E0FDE4EF
:10301B001229A57BCD7ACC79CC783C12278190886C
:10302B0010122BC2E4FFFEFDFC908810122B96743D
:10303B00C0122929500A908810122BCE00000000D4
:10304B00908768E0FCA3E0FDE41229A57BCD7ACC48
:10305B0079CC783C122781908814122BC2E4FFFEA6
:10306B00FDFC908814122B9674C0122929500A90DB
:10307B008814122BCE00000000908766E0FCA3E0C2
:10308B00FDE41229A57BCD7ACC79CC783C12278133
:10309B00908818122BC2E4FFFEFDFC908818122BAF
:1030AB009674C0122929500A908818122BCE000052
:1030BB00000090876CE0FCA3E0FDE41229A57BCD1A
:1030CB007ACC79CC783C12278190881C122BC2E4E5
:1030DB00FFFEFDFC90881C122B9674C01229295000
:1030EB000A90881C122BCE0000000090876AE0FC2F
:1030FB00A3E0FDE41229A57BCD7ACC79CC783C12E8
:10310B002781908820122BC2E4FFFEFDFC908820C3
:10311B00122B9674C0122929500A908820122BCE9C
:10312B000000000090876EE0FCA3E0FDE41229A5EF
:10313B007BCD7ACC79CC783C122781908824122BCA
:10314B00C2E4FFFEFDFC908824122B9674C012295A
:10315B0029500A908824122BCE000000009087740F
:10316B00E0FCA3E0FDE41229A57BCD7ACC79CC78E9
:10317B003C122781908828122BC2E4FFFEFDFC90A5
:10318B008828122B9674C0122929500A908828126D
:10319B002BCE00000000908770E0FCA3E0FDE41252
:1031AB0029A57BCD7ACC79CC783C12278190882CC1
:1031BB00122BC2E4FFFEFDFC90882C122B9674C0E0
:1031CB00122929500A90882C122BCE000000009057
:1031DB008778E0FCA3E0FDE41229A57BCD7ACC79BE
:1031EB00CC783C122781908830122BC2E4FFFEFD75
:1031FB00FC908830122B9674C0122929500A9088A3
:10320B0030122BCE00000000908772E0FCA3E0FD93
:10321B00E41229A57BCD7ACC79CC783C122781900E
:10322B008834122BC2E4FFFEFDFC908834122B96DF
:10323B0074C0122929500A908834122BCE0000003A
:10324B0000908780127D3B908859EFF090877E121B
:10325B007D3B90885BEFF0908776127D3B90886288
:0D326B00EFF0908782127D3B908868EFF0B5
:013278002233
:1056A900E4F53FC3E53F9428748094805011748CCD
:1056B900253FF582E43484F583E4F0053F80E4D2A4
:1056C900B0E490841BF09085CE74AAF090E000E0DD
:1056D900F541C290C2B0B2957F207E4E128C83B242
:1056E90095E4F53FC3E53F940974809480503DE506
:1056F9003F25E0248EF582E43484F583E0FEE53F1E
:1057090025E0248FF582E43484F583E07C002400CD
:10571900FFEC3E540FFEE53F25E024E9F582E43431
:1057290087F583EEF0A3EFF0053F80B89084A0E001
:10573900FEA3E07C002400FFEC3E540F90886FF03C
:10574900A3EFF09084A2E0FEA3E02400FFEC3E5416
:105759000F908873F0A3EFF09084A4E0FEA3E024F7
:1057690000FFEC3E540F90880AF0A3EFF09084A656
:10577900E0FEA3E02400FFEC3E540F908800F0A364
:10578900EFF09084A8E0FEA3E02400FFEC3E540F64
:10579900908598F0A3EFF09084AAE0FEA3E024009E
:1057A900FFEC3E540FFE9085C6F0A3EFF0FDAC066A
:1057B900E41229A57B0A7AD77923783B12278190AD
:1057C9008884122BC290886FE0FCA3E0FDE41229C3
:1057D900A57BCD7ACC79CC783C1227819083D012E5
:1057E9002BC2908873E0FCA3E0FDE41229A57BCDD0
:1057F9007ACC79CC783C1227819083D4122BC29031
:1058090087E9E0FCA3E0FDE41229A57B0A7AD779B0
:1058190023783B122781908023122BC29087EBE0DB
:10582900FCA3E0FDE41229A57B0A7AD77923783B0A
:10583900122781908027122BC29087EDE0FCA3E00C
:10584900FDE41229A57B0A7AD77923783B122781AF
:1058590090802B122BC29087EFE0FCA3E0FDE412AD
:1058690029A57B0A7AD77923783B12278190802F43
:10587900122BC29087F1E0FCA3E0FDE41229A57B7D
:105889000A7AD77923783B122781908033122BC269
:105899009087F3E0FCA3E0FDE41229A57B0A7AD7FF
:1058A9007923783B122781908037122BC29087F594
:1058B900E0FCA3E0FDE41229A57B0A7AD7792378D5
:1058C9003B12278190803B122BC29087F7E0FCA303
:1058D900E0FDE41229A57B0A7AD77923783B1227C0
:1058E9008190803F122BC29087F9E0FCA3E0FDE490
:1058F9001229A57B0A7AD77923783B1227819080D0
:1059090043122BC2E4F53FC3E53F940974809480A8
:105919005028E53F25E025E02423F582E43480F58D
:1059290083122B7AE53F25E025E024AFF582E434A4
:1059390087F583122BC2053F80CDE4F53FC3E53FD0
:1059490094087480948040030259F9754001C37426
:1059590009953FFFE540C39F40030259F4E53F2500
:105969004025E025E024AFF582E43487F583122B46
:105979007AE53F25E025E024AFF582E43487F58315
:10598900122B9674C0122929605C405AE53F2540C4
:10599900FB25E025E024AFF582E43487F583122B5B
:1059A9007A8F458E448D438C42E53F25E025E024DE
:1059B900AFF582E43487F583122B7AEB25E025E0F5
:1059C90024AFF582E43487F583122BC2AF45AE4488
:1059D900AD43AC42E53F25E025E024AFF582E43450
:1059E90087F583122BC20540025957053F025946D4
:0159F900228B
:1079E00090F400EFF07F0A7E00128C83E4FBEBC37F
:1079F000940A74809480503A90FC00E0753F00F542
:107A0000407F067E00128C8390FC02E075F010A48B
:107A1000FFA3E0C4540F7C002FFFEC35F0FEEB25F4
:107A2000E024C5F582E43489F583EEF0A3EFF00B92
:107A300080BCE4FBEBC39409748094804003027A19
:107A4000CC7F01C3740A9BFEEFC39E507BEB2F25B6
:107A5000E024C5F582E43489F583E0FCA3E0FDEB86
:107A600025E024C5F582E43489F583E0F8A3E0F548
:107A7000828883D39DE5839C404AEB2FFE25E0243A
:107A8000C5F582E43489F583E0F53FA3E0F540EBEA
:107A900025E024C5F582E43489F583E0FCA3E0FD0C
:107AA000EE25E024C5F582E43489F583ECF0A3EDFE
:107AB000F0EB25E024C5F582E43489F583E53FF059
:107AC000A3E540F00F027A430B027A34E4F53FF568
:107AD000407B01EBC3940974809480501CEB25E03B
:107AE00024C5F582E43489F583E0FEA3E02540F562
:107AF00040EE353FF53F0B80DA74042540F540E455
:107B0000353FF53FC4F854F0C868F53FE540C4542C
:077B10000F48F540AE3FFFF6
:017B1700224B
:104BC400E4908006F090872AE0FEA3E07803CEC349
:104BD40013CE13D8F9D3947DEE9400400790800649
:104BE400E04480F090872EE0FEA3E07803CEC31368
:104BF400CE13D8F9D3947DEE94004007908006E05C
:104C04004440F0908732E0FEA3E07803CEC313CE95
:104C140013D8F9D3947DEE94004007908006E044C5
:104C240020F0908734E0FEA3E07803CEC313CE13C4
:104C3400D8F9D3947DEE94004007908006E04410A8
:104C4400F0908736E0FEA3E07803CEC313CE13D8EA
:104C5400F9D3947DEE94004007908006E04408F078
:104C6400908738E0FEA3E07803CEC313CE13D8F9BF
:104C7400D3947DEE94004007908006E04404F090C5
:104C8400873AE0FEA3E07803CEC313CE13D8F9D35A
:104C9400947DEE94004007908006E04402F09087F3
:104CA4003EE0FEA3E07803CEC313CE13D8F9D39429
:104CB4007DEE94004007908006E04401F0E490808B
:104CC40007F0908740E0FEA3E07803CEC313CE1331
:104CD400D8F9D3947DEE94004007908007E0448097
:104CE400F0908742E0FEA3E07803CEC313CE13D83E
:104CF400F9D3947DEE94004007908007E04440F09F
:104D0400908714E0FEA3E07803CEC313CE13D8F942
:104D1400D3947DEE94004007908007E04420F09007
:104D24008718E0FEA3E07803CEC313CE13D8F9D3DB
:104D3400947DEE94004007908007E04410F0908743
:104D44001CE0FEA3E07803CEC313CE13D8F9D394AA
:104D54007DEE94004007908007E04408F090871EA1
:104D6400E0FEA3E07803CEC313CE13D8F9D3947D29
:104D7400EE94004007908007E04404F0908716E02A
:104D8400FEA3E07803CEC313CE13D8F9D3947DEEFB
:104D940094004007908007E04402F090871AE0FEF8
:104DA400A3E07803CEC313CE13D8F9D3947DEE9445
:104DB400004007908007E04401F0E4908008F09000
:104DC40086ECE0FEA3E07803CEC313CE13D8F9D368
:104DD400947DEE94004007908008E04480F0908633
:104DE400F4E0FEA3E07803CEC313CE13D8F9D39432
:104DF4007DEE94004007908008E04440F09086FCEB
:104E0400E0FEA3E07803CEC313CE13D8F9D3947D88
:104E1400EE94004007908008E04420F0908704E07E
:104E2400FEA3E07803CEC313CE13D8F9D3947DEE5A
:104E340094004007908008E04410F09086F0E0FE73
:104E4400A3E07803CEC313CE13D8F9D3947DEE94A4
:104E5400004007908008E04408F09086F8E0FEA344
:104E6400E07803CEC313CE13D8F9D3947DEE940027
:104E74004007908008E04404F0908700E0FEA3E03F
:104E84007803CEC313CE13D8F9D3947DEE940040A7
:104E940007908008E04402F0908708E0FEA3E078E1
:104EA40003CEC313CE13D8F9D3947DEE94004007F8
:104EB400908008E04401F0E4908013F09085BFE016
:104EC40064AA7007908013E04480F0908849E064FD
:104ED400AA7007908013E04440F090848BE064AAA9
:104EE4007007908013E04420F0908857E064AA7023
:104EF40007908013E04410F0908876E064AA70076D
:104F0400908013E04408F090894CE064AA70079004
:104F14008013E04404F090826EE064AA70079080ED
:104F240013E04402F0E4908012F090848CE0540189
:104F340064017007908012E04480F090848DE0FB5F
:104F4400548064807007908012E04440F0EB544039
:104F540064407007908012E04420F090848DE05407
:104F64002064207007908012E04410F090848DE05B
:104F7400FB541064107007908012E04408F0EB5466
:104F84000864087007908012E04404F090848DE077
:104F9400540464047007908012E04402F090848DFD
:104FA400E0FB540264027007908012E04401F0E4D4
:104FB40090801EF0EB540164017004E04480F02200
:101D0F00908882E064AA700B753E01753F8575401F
:101D1F00E28009753E01753F90754000E4F541ABD7
:101D2F003EAA3FA940749B122A7874012540F540C2
:101D3F00E4353FF53FAB3EFAA9407468122A787438
:101D4F00012540F540E4353FF53FAB3EFAA940E4AD
:101D5F00122A78042540F540E4353FF53FAB3EFAB3
:101D6F00A940742C122A7874012540F540E4353FC0
:101D7F00F53FAB3EFAA9407430122A78AB3EAA3F2A
:101D8F00A940122A5F2541F54174012540F540E431
:101D9F00353FF53F9087ADE0AA3FA940122A78ABB7
:101DAF003EAA3FA940122A5F2541F5417401254003
:101DBF00F540E4353FF53F9087ADA3E0AA3FA9403A
:101DCF00122A78AB3EAA3FA940122A5F2541F5415E
:101DDF0074012540F540E4353FF53F9087DFE0AAD9
:101DEF003FA940122A78AB3EAA3FA940122A5F258D
:101DFF0041F54174012540F540E4353FF53F9087AB
:101E0F00DFA3E0AA3FA940122A78AB3EAA3FA94020
:101E1F00122A5F2541F54174012540F540E4353F15
:101E2F00F53F908720E0AA3FA940122A78AB3EAA3F
:101E3F003FA940122A5F2541F54174012540F54025
:101E4F00E4353FF53FFAA940749B122A78740125B7
:101E5F0040F540E4353FF53FAB3EFAA940746812B8
:101E6F002A7874012540F540E4353FF53FAB3EFA43
:101E7F00A9407401122A782540F540E4353FF53F1B
:101E8F00908720A3E0AB3EAA3FA940122A78AB3E31
:101E9F00AA3FA940122A5F2541F54174012540F55B
:101EAF0040E4353FF53F9086DCE0AA3FA940122A77
:101EBF0078AB3EAA3FA940122A5F2541F541740134
:101ECF002540F540E4353FF53F9086DCA3E0AA3F7F
:101EDF00A940122A78AB3EAA3FA940122A5F25419A
:101EEF00F54174012540F540E4353FF53F9086E01C
:101EFF00E0AA3FA940122A78AB3EAA3FA940122A76
:101F0F005F2541F54174012540F540E4353FF53F2C
:101F1F009086E0A3E0AA3FA940122A78AB3EAA3FE1
:101F2F00A940122A5F2541F54174012540F540E48F
:101F3F00353FF53F9086DEE0AA3FA940122A78ABE5
:101F4F003EAA3FA940122A5F2541F5417401254061
:101F5F00F540E4353FF53F9086DEA3E0AA3FA94068
:101F6F00122A78AB3EAA3FA940122A5F2541F541BC
:101F7F0074012540F540E4353FF53FFAA940749BC5
:101F8F00122A7874012540F540E4353FF53FAB3E0A
:101F9F00FAA9407468122A7874012540F540E43597
:101FAF003FF53FAB3EFAA9407402122A7814254040
:101FBF00F540E4353FF53F9086E2E0AB3EAA3FA9FE
:101FCF0040122A78AB3EAA3FA940122A5F2541F55D
:101FDF004174012540F540E4353FF53F9086E2A37B
:101FEF00E0AA3FA940122A78AB3EAA3FA940122A85
:101FFF005F2541F54174012540F540E4353FF53F3C
:10200F0090886FE0AA3FA940122A78AB3EAA3FA959
:10201F0040122A5F2541F54174012540F540E43512
:10202F003FF53F90886FA3E0AA3FA940122A78ABF3
:10203F003EAA3FA940122A5F2541F5417401254070
:10204F00F540E4353FF53F908873E0AA3FA9401271
:10205F002A78AB3EAA3FA940122A5F2541F5417469
:10206F00012540F540E4353FF53F908873A3E0AA82
:10207F003FA940122A78AB3EAA3FA940122A5F25FA
:10208F0041F54174012540F540E4353FF53F908619
:10209F00E4E0AA3FA940122A78AB3EAA3FA940121A
:1020AF002A5F2541F54174012540F540E4353FF5A0
:1020BF003FFAA940749B122A7874012540F540E439
:1020CF00353FF53FAB3EFAA9407468122A78740188
:1020DF002540F540E4353FF53FAB3EFAA940740388
:1020EF00122A7874012540F540E4353FF53F90867C
:1020FF00E4A3E0AB3EAA3FA940122A78AB3EAA3F29
:10210F00A940122A5F2541F54174012540F540E4AD
:10211F00353FF53F90870EE0AA3FA940122A78ABD2
:10212F003EAA3FA940122A5F2541F541740125407F
:10213F00F540E4353FF53F90870EA3E0AA3FA94055
:10214F00122A78AB3EAA3FA940122A5F2541F541DA
:10215F0074012540F540E4353FF53F9086E8E0AA4D
:10216F003FA940122A78AB3EAA3FA940122A5F2509
:10217F0041F54174012540F540E4353FF53F908628
:10218F00E8A3E0AA3FA940122A78AB3EAA3FA94094
:10219F00122A5F2541F54174012540F540E4353F92
:1021AF00F53F908712E0AA3FA940122A78AB3EAACA
:1021BF003FA940122A5F2541F54174012540F540A2
:1021CF00E4353FF53F908712A3E0AA3FA940122ABA
:1021DF0078AB3EAA3FA940122A5F2541F541740111
:1021EF002540F540E4353FF53FFAA940749B122A8C
:1021FF007874012540F540E4353FF53FAB3EFAA931
:10220F00407468122A7874012540F540E4353FF593
:10221F003FAB3EFAA9407404122A7874012540F5A9
:10222F0040E4353FF53FE4FFFE7DC87C429087E1F7
:10223F00122B96122781E4FBFAF9783F122690129F
:10224F0029DEEEAB3EAA3FA940122A78AB3EAA3F49
:10225F00A940122A5F2541F54174012540F540E45C
:10226F00353FF53FE4FFFE7DC87C429087E1122B9E
:10227F0096122781E4FBFAF9783F1226901229DE95
:10228F00AB3EAA3FA940EF122A78AB3EAA3FA94026
:10229F00122A5F2541F54174012540F540E4353F91
:1022AF00F53FE4FFFE7DC87C429087E5122B961226
:1022BF002781E4FBFAF9783F1226901229DEEEAB64
:1022CF003EAA3FA940122A78AB3EAA3FA940122A44
:1022DF005F2541F54174012540F540E4353FF53F59
:1022EF00E4FFFE7DC87C429087E5122B9612278172
:1022FF00E4FBFAF9783F1226901229DEAB3EAA3F93
:10230F00A940EF122A78AB3EAA3FA940122A5F25B7
:10231F0041F54174012540F540E4353FF53F908785
:10232F003CE0AA3FA940122A78AB3EAA3FA940122F
:10233F002A5F2541F54174012540F540E4353FF50D
:10234F003F90873CA3E0AA3FA940122A78AB3EAA50
:10235F003FA940122A5F2541F54174012540F54000
:10236F00E4353FF53F90872CE0AA3FA940122A7829
:10237F00AB3EAA3FA940122A5F2541F541740125C2
:10238F0040F540E4353FF53FFAA940749B122A7897
:10239F0074012540F540E4353FF53FAB3EFAA940C7
:1023AF007468122A7874012540F540E4353FF53FF3
:1023BF00AB3EFAA9407405122A7874012540F54006
:1023CF00E4353FF53F90872CA3E0AB3EAA3FA940F1
:1023DF00122A78AB3EAA3FA940122A5F2541F54148
:1023EF0074012540F540E4353FF53F908730E0AA72
:1023FF003FA940122A78AB3EAA3FA940122A5F2577
:10240F0041F54174012540F540E4353FF53F908794
:10241F0030A3E0AA3FA940122A78AB3EAA3FA940B9
:10242F00122A5F2541F54174012540F540E4353FFF
:10243F00F53FE4FFFE7DC87C4290840A122B961272
:10244F002781E4FBFAF9783F1226901229DEEEABD2
:10245F003EAA3FA940122A78AB3EAA3FA940122AB2
:10246F005F2541F54174012540F540E4353FF53FC7
:10247F00E4FFFE7DC87C4290840A122B96122781BE
:10248F00E4FBFAF9783F1226901229DEAB3EAA3F01
:10249F00A940EF122A78AB3EAA3FA940122A5F2526
:1024AF0041F54174012540F540E4353FF53FE4FF28
:1024BF00FE7DC87C42908802122B96122781E4FB86
:1024CF00FAF9783F1226901229DEEEAB3EAA3FA909
:1024DF0040122A78AB3EAA3FA940122A5F2541F548
:1024EF004174012540F540E4353FF53FE4FFFE7DA3
:1024FF00C87C42908802122B96122781E4FBFAF9CE
:10250F00783F1226901229DEAB3EAA3FA940EF1268
:10251F002A78AB3EAA3FA940122A5F2541F54174A4
:10252F00012540F540E4353FF53FFAA940749B1271
:10253F002A7874012540F540E4353FF53FAB3EFA6C
:10254F00A9407466122A7874012540F540E4353F9E
:10255F00F53FAB3EFAA9407406122A787401254064
:10256F00F540E4353FF53FE4FFFE7DC87C429082A5
:10257F008B122B96122781E4FBFAF9783F122690E3
:10258F001229DEEEAB3EAA3FA940122A78AB3EAA33
:10259F003FA940122A5F2541F54174012540F540BE
:1025AF00E4353FF53FE4FFFE7DC87C4290828B12FD
:1025BF002B96122781E4FBFAF9783F122690122905
:1025CF00DEAB3EAA3FA940EF122A78AB3EAA3FA945
:1025DF0040122A5F2541F54174012540F540E4354D
:1025EF003FF53FE4FFFE7DC87C42908271122B962F
:1025FF00122781E4FBFAF9783F1226901229DEEEBA
:10260F00AB3EAA3FA940122A78AB3EAA3FA940127F
:10261F002A5F2541F54174012540F540E4353FF52A
:10262F003FE4FFFE7DC87C42908271122B961227E9
:10263F0081E4FBFAF9783F1226901229DEAB3EAA0D
:10264F003FA940EF122A78AB3EAA3FA940122A5F5A
:10265F002541F54174012540F540E4353FF53FFA3A
:10266F00A940E541122A78908882E064AA70047428
:09267F0055F02290888274AAF043
:01268800222F
:1000330090894AE064AA700B753E01753F8675404E
:10004300288009753E01753F92754000E4FDAB3E83
:10005300AA3FA940749B122A7874012540F540E415
:10006300353FF53FAB3EFAA9407468122A78740114
:100073002540F540E4353FF53FAB3EFAA940E41295
:100083002A78042540F540E4353FF53FAB3EFAA915
:1000930040746E122A7874012540F540E4353FF52B
:1000A3003FAB3EFAA9407450122A78AB3EAA3FA94F
:1000B30040122A5F2DFD74012540F540E4353FF5DC
:1000C3003F9086EEE0AA3FA940122A78AB3EAA3FB2
:1000D300A940122A5F2DFD74012540F540E4353F08
:1000E300F53F9086EEA3E0AA3FA940122A78AB3EE3
:1000F300AA3FA940122A5F2DFD74012540F540E473
:10010300353FF53F9086F6E0AA3FA940122A78AB27
:100113003EAA3FA940122A5F2DFD74012540F540F8
:10012300E4353FF53F9086F6A3E0AA3FA940122AA3
:1001330078AB3EAA3FA940122A5F2DFD74012540EA
:10014300F540E4353FF53F9086FEE0AA3FA9401213
:100153002A78AB3EAA3FA940122A5F2DFD740125E0
:1001630040F540E4353FF53FFAA940749B122A78E5
:1001730074012540F540E4353FF53FAB3EFAA94015
:100183007468122A7874012540F540E4353FF53F41
:10019300AB3EFAA9407401122A782540F540E435B4
:1001A3003FF53F9086FEA3E0AB3EAA3FA940122A4B
:1001B30078AB3EAA3FA940122A5F2DFD740125406A
:1001C300F540E4353FF53F908706E0AA3FA940128A
:1001D3002A78AB3EAA3FA940122A5F2DFD74012560
:1001E30040F540E4353FF53F908706A3E0AA3FA9D9
:1001F30040122A78AB3EAA3FA940122A5F2DFD7414
:10020300012540F540E4353FF53F9086F2E0AA3FF3
:10021300A940122A78AB3EAA3FA940122A5F2DFDBE
:1002230074012540F540E4353FF53F9086F2A3E0A5
:10023300AA3FA940122A78AB3EAA3FA940122A5FDF
:100243002DFD74012540F540E4353FF53F9086FAD6
:10025300E0AA3FA940122A78AB3EAA3FA940122A3E
:100263005F2DFD74012540F540E4353FF53F908651
:10027300FAA3E0AA3FA940122A78AB3EAA3FA940BD
:10028300122A5F2DFD74012540F540E4353FF53F0B
:10029300FAA940749B122A7874012540F540E4358D
:1002A3003FF53FAB3EFAA9407468122A78740125E2
:1002B30040F540E4353FF53FAB3EFAA940740212E6
:1002C3002A78142540F540E4353FF53F908702E056
:1002D300AB3EAA3FA940122A78AB3EAA3FA94012DF
:1002E3002A5F2DFD74012540F540E4353FF53F902D
:1002F3008702A3E0AA3FA940122A78AB3EAA3FA9EE
:1003030040122A5F2DFD74012540F540E4353FF589
:100313003F90870AE0AA3FA940122A78AB3EAA3F42
:10032300A940122A5F2DFD74012540F540E4353FB5
:10033300F53F90870AA3E0AA3FA940122A78AB3E73
:10034300AA3FA940122A5F2DFD74012540F540E420
:10035300353FF53F908722E0AA3FA940122A78ABA8
:100363003EAA3FA940122A5F2DFD74012540F540A6
:10037300E4353FF53F908722A3E0AA3FA940122A24
:1003830078AB3EAA3FA940122A5F2DFD7401254098
:10039300F540E4353FF53F908724E0AA3FA940129A
:1003A3002A78AB3EAA3FA940122A5F2DFD7401258E
:1003B30040F540E4353FF53FFAA940749B122A7893
:1003C30074012540F540E4353FF53FAB3EFAA940C3
:1003D3007468122A7874012540F540E4353FF53FEF
:1003E300AB3EFAA9407403122A7874012540F54004
:1003F300E4353FF53F908724A3E0AB3EAA3FA940F5
:10040300122A78AB3EAA3FA940122A5F2DFD740140
:100413002540F540E4353FF53F908726E0AA3FA904
:1004230040122A78AB3EAA3FA940122A5F2DFD74E1
:10043300012540F540E4353FF53F908726A3E0AA28
:100443003FA940122A78AB3EAA3FA940122A5F2D4A
:10045300FD74012540F540E4353FF53F908728E0E2
:10046300AA3FA940122A78AB3EAA3FA940122A5FAD
:100473002DFD74012540F540E4353FF53F90872875
:10048300A3E0AA3FA940122A78AB3EAA3FA9401293
:100493002A5F2DFD74012540F540E4353FF53F907B
:1004A3008764E0AA3FA940122A78AB3EAA3FA9403D
:1004B300122A5F2DFD74012540F540E4353FF53FD9
:1004C300908764A3E0AA3FA940122A78AB3EAA3FD3
:1004D300A940122A5F2DFD74012540F540E4353F04
:1004E300F53FFAA940749B122A7874012540F54020
:1004F300E4353FF53FAB3EFAA9407468122A78749D
:10050300012540F540E4353FF53FAB3EFAA9407481
:1005130004122A7874012540F540E4353FF53F90F5
:100523008768E0AB3EAA3FA940122A78AB3EAA3FB8
:10053300A940122A5F2DFD74012540F540E4353FA3
:10054300F53F908768A3E0AA3FA940122A78AB3E03
:10055300AA3FA940122A5F2DFD74012540F540E40E
:10056300353FF53F908766E0AA3FA940122A78AB52
:100573003EAA3FA940122A5F2DFD74012540F54094
:10058300E4353FF53F908766A3E0AA3FA940122ACE
:1005930078AB3EAA3FA940122A5F2DFD7401254086
:1005A300F540E4353FF53F90876CE0AA3FA9401240
:1005B3002A78AB3EAA3FA940122A5F2DFD7401257C
:1005C30040F540E4353FF53F90876CA3E0AA3FA98F
:1005D30040122A78AB3EAA3FA940122A5F2DFD7430
:1005E300012540F540E4353FF53F90876AE0AA3F97
:1005F300A940122A78AB3EAA3FA940122A5F2DFDDB
:1006030074012540F540E4353FF53FFAA940749B5A
:10061300122A7874012540F540E4353FF53FAB3E9F
:10062300FAA9407468122A7874012540F540E4352C
:100633003FF53FAB3EFAA9407405122A78740125B1
:1006430040F540E4353FF53F90876AA3E0AB3EAA0F
:100653003FA940122A78AB3EAA3FA940122A5F2D38
:10066300FD74012540F540E4353FF53F90876EE08A
:10067300AA3FA940122A78AB3EAA3FA940122A5F9B
:100683002DFD74012540F540E4353FF53F90876E1D
:10069300A3E0AA3FA940122A78AB3EAA3FA9401281
:1006A3002A5F2DFD74012540F540E4353FF53F9069
:1006B3008774E0AA3FA940122A78AB3EAA3FA9401B
:1006C300122A5F2DFD74012540F540E4353FF53FC7
:1006D300908774A3E0AA3FA940122A78AB3EAA3FB1
:1006E300A940122A5F2DFD74012540F540E4353FF2
:1006F300F53F908770E0AA3FA940122A78AB3EAA43
:100703003FA940122A5F2DFD74012540F540E435D1
:100713003FF53F908770A3E0AA3FA940122A78AB28
:100723003EAA3FA940122A5F2DFD74012540F540E2
:10073300E4353FF53FFAA940749B122A78740125EA
:1007430040F540E4353FF53FAB3EFAA940746812EB
:100753002A7874012540F540E4353FF53FAB3EFA76
:10076300A9407406122A7874012540F540E4353F08
:10077300F53F908778E0AB3EAA3FA940122A78ABB9
:100783003EAA3FA940122A5F2DFD74012540F54082
:10079300E4353FF53F908778A3E0AA3FA940122AAA
:1007A30078AB3EAA3FA940122A5F2DFD7401254074
:1007B300F540E4353FF53F908772E0AA3FA9401228
:1007C3002A78AB3EAA3FA940122A5F2DFD7401256A
:1007D30040F540E4353FF53F908772A3E0AA3FA977
:1007E30040122A78AB3EAA3FA940122A5F2DFD741E
:1007F300012540F540E4353FF53F908754E0AA3F9B
:10080300A940122A78AB3EAA3FA940122A5F2DFDC8
:1008130074012540F540E4353FF53F908754A3E04C
:10082300AA3FA940122A78AB3EAA3FA940122A5FE9
:100833002DFD74012540F540E4353FF53F90874C8D
:10084300E0AA3FA940122A78AB3EAA3FA940122A48
:100853005F2DFD74012540F540E4353FF53FFAA9CE
:1008630040749B122A7874012540F540E4353FF526
:100873003FAB3EFAA9407468122A7874012540F50B
:1008830040E4353FF53FAB3EFAA9407407122A789E
:1008930074012540F540E4353FF53F90874CA3E0D4
:1008A300AB3EAA3FA940122A78AB3EAA3FA9401209
:1008B3002A5F2DFD74012540F540E4353FF53F9057
:1008C3008744E0AA3FA940122A78AB3EAA3FA94039
:1008D300122A5F2DFD74012540F540E4353FF53FB5
:1008E300908744A3E0AA3FA940122A78AB3EAA3FCF
:1008F300A940122A5F2DFD74012540F540E4353FE0
:10090300F53F90875CE0AA3FA940122A78AB3EAA44
:100913003FA940122A5F2DFD74012540F540E435BF
:100923003FF53F90875CA3E0AA3FA940122A78AB2A
:100933003EAA3FA940122A5F2DFD74012540F540D0
:10094300E4353FF53F908756E0AA3FA940122A7845
:10095300AB3EAA3FA940122A5F2DFD74012540F545
:1009630040E4353FF53F908756A3E0AA3FA94012E4
:100973002A78AB3EAA3FA940122A5F2DFD740125B8
:1009830040F540E4353FF53FFAA940749B122A78BD
:1009930074012540F540E4353FF53FAB3EFAA940ED
:1009A3007468122A7874012540F540E4353FF53F19
:1009B300AB3EFAA9407408122A7874012540F54029
:1009C300E4353FF53F90874EE0AB3EAA3FA9401286
:1009D3002A78AB3EAA3FA940122A5F2DFD74012558
:1009E30040F540E4353FF53F90874EA3E0AA3FA989
:1009F30040122A78AB3EAA3FA940122A5F2DFD740C
:100A0300012540F540E4353FF53F908746E0AA3F96
:100A1300A940122A78AB3EAA3FA940122A5F2DFDB6
:100A230074012540F540E4353FF53F908746A3E048
:100A3300AA3FA940122A78AB3EAA3FA940122A5FD7
:100A43002DFD74012540F540E4353FF53F90875E69
:100A5300E0AA3FA940122A78AB3EAA3FA940122A36
:100A63005F2DFD74012540F540E4353FF53F908748
:100A73005EA3E0AA3FA940122A78AB3EAA3FA94051
:100A8300122A5F2DFD74012540F540E4353FF53F03
:100A9300908758E0AA3FA940122A78AB3EAA3FA903
:100AA30040122A5F2DFD74012540F540E4353FF5E2
:100AB3003FFAA940749B122A7874012540F540E45B
:100AC300353FF53FAB3EFAA9407468122A787401AA
:100AD3002540F540E4353FF53FAB3EFAA9407409A4
:100AE300122A7874012540F540E4353FF53F90879D
:100AF30058A3E0AB3EAA3FA940122A78AB3EAA3FD7
:100B0300A940122A5F2DFD74012540F540E4353FCD
:100B1300F53F908750E0AA3FA940122A78AB3EAA3E
:100B23003FA940122A5F2DFD74012540F540E435AD
:100B33003FF53F908750A3E0AA3FA940122A78AB24
:100B43003EAA3FA940122A5F2DFD74012540F540BE
:100B5300E4353FF53F908748E0AA3FA940122A7841
:100B6300AB3EAA3FA940122A5F2DFD74012540F533
:100B730040E4353FF53F908748A3E0AA3FA94012E0
:100B83002A78AB3EAA3FA940122A5F2DFD740125A6
:100B930040F540E4353FF53F908760E0AA3FA94028
:100BA300122A78AB3EAA3FA940122A5F2DFD740199
:100BB3002540F540E4353FF53F908760A3E0AA3F29
:100BC300A940122A78AB3EAA3FA940122A5F2DFD05
:100BD30074012540F540E4353FF53FFAA940749B85
:100BE300122A7874012540F540E4353FF53FAB3ECA
:100BF300FAA9407468122A7874012540F540E43557
:100C03003FF53FAB3EFAA940740A122A78740125D6
:100C130040F540E4353FF53F90875AE0AB3EAA3FAD
:100C2300A940122A78AB3EAA3FA940122A5F2DFDA4
:100C330074012540F540E4353FF53F90875AA3E022
:100C4300AA3FA940122A78AB3EAA3FA940122A5FC5
:100C53002DFD74012540F540E4353FF53F90875263
:100C6300E0AA3FA940122A78AB3EAA3FA940122A24
:100C73005F2DFD74012540F540E4353FF53F908736
:100C830052A3E0AA3FA940122A78AB3EAA3FA9404B
:100C9300122A5F2DFD74012540F540E4353FF53FF1
:100CA30090874AE0AA3FA940122A78AB3EAA3FA9FF
:100CB30040122A5F2DFD74012540F540E4353FF5D0
:100CC3003F90874AA3E0AA3FA940122A78AB3EAAE5
:100CD3003FA940122A5F2DFD74012540F540E435FC
:100CE3003FF53F908762E0AA3FA940122A78AB3EC6
:100CF300AA3FA940122A5F2DFD74012540F540E467
:100D0300353FF53FFAA940749B122A7874012540B8
:100D1300F540E4353FF53FAB3EFAA9407468122A2B
:100D23007874012540F540E4353FF53FAB3EFAA921
:100D330040740B122A7874012540F540E4353FF5E1
:100D43003F908762A3E0AB3EAA3FA940122A78AB4B
:100D53003EAA3FA940122A5F2DFD74012540F540AC
:100D6300E4353FF53F90877AE0AA3FA940122A78FD
:100D7300AB3EAA3FA940122A5F2DFD74012540F521
:100D830040E4353FF53F90877AA3E0AA3FA940129C
:100D93002A78AB3EAA3FA940122A5F2DFD74012594
:100DA30040F540E4353FF53F90877CE0AA3FA940FA
:100DB300122A78AB3EAA3FA940122A5F2DFD740187
:100DC3002540F540E4353FF53F90877CA3E0AA3FFB
:100DD300A940122A78AB3EAA3FA940122A5F2DFDF3
:100DE30074012540F540E4353FF53F90870CE0AAB8
:100DF3003FA940122A78AB3EAA3FA940122A5F2D91
:100E0300FD74012540F540E4353FF53F90870CA381
:100E1300E0AA3FA940122A78AB3EAA3FA940122A72
:100E23005F2DFD74012540F540E4353FF53FFAA9F8
:100E330040749B122A7874012540F540E4353FF550
:100E43003FAB3EFAA9407468122A7874012540F535
:100E530040E4353FF53FAB3EFAA940740C122A78C3
:100E630074012540F540E4353FF53F908710E0AB32
:100E73003EAA3FA940122A78AB3EAA3FA940122AB4
:100E83005F2DFD74012540F540E4353FF53F908724
:100E930010A3E0AA3FA940122A78AB3EAA3FA9407B
:100EA300122A5F2DFD74012540F540E4353FF53FDF
:100EB3009085C0E0AA3FA940122A78AB3EAA3FA979
:100EC30040122A5F2DFD74012540F540E4353FF5BE
:100ED3003F9085C1E0AA3FA940122A78AB3EAA3FC2
:100EE300A940122A5F2DFD74012540F540E4353FEA
:100EF300F53F9085C2E0AA3FA940122A78AB3EAAEB
:100F03003FA940122A5F2DFD74012540F540E435C9
:100F13003FF53F9085C3E0AA3FA940122A78AB3E34
:100F2300AA3FA940122A5F2DFD74012540F540E434
:100F3300353FF53F9085C4E0AA3FA940122A78AB1C
:100F43003EAA3FA940122A5F2DFD74012540F540BA
:100F5300E4353FF53FFAA940749B122A78740125C2
:100F630040F540E4353FF53FAB3EFAA940746812C3
:100F73002A7874012540F540E4353FF53FAB3EFA4E
:100F8300A940740D122A7874012540F540E4353FD9
:100F9300F53F9085C5E0AB3EAA3FA940122A78AB46
:100FA3003EAA3FA940122A5F2DFD74012540F5405A
:100FB300E4353FF53F9087E9E0AA3FA940122A783C
:100FC300AB3EAA3FA940122A5F2DFD74012540F5CF
:100FD30040E4353FF53F9087E9A3E0AA3FA94012DB
:100FE3002A78AB3EAA3FA940122A5F2DFD74012542
:100FF30040F540E4353FF53F9087EBE0AA3FA94039
:10100300122A78AB3EAA3FA940122A5F2DFD740134
:101013002540F540E4353FF53F9087EBA3E0AA3F39
:10102300A940122A78AB3EAA3FA940122A5F2DFDA0
:1010330074012540F540E4353FF53F9087EDE0AA84
:101043003FA940122A78AB3EAA3FA940122A5F2D3E
:10105300FD74012540F540E4353FF53F9087EDA34E
:10106300E0AA3FA940122A78AB3EAA3FA940122A20
:101073005F2DFD74012540F540E4353FF53FFAA9A6
:1010830040749B122A7874012540F540E4353FF5FE
:101093003FAB3EFAA9407468122A7874012540F5E3
:1010A30040E4353FF53FAB3EFAA940740E122A786F
:1010B30074012540F540E4353FF53F9087EFE0AB01
:1010C3003EAA3FA940122A78AB3EAA3FA940122A62
:1010D3005F2DFD74012540F540E4353FF53F9087D2
:1010E300EFA3E0AA3FA940122A78AB3EAA3FA9404A
:1010F300122A5F2DFD74012540F540E4353FF53F8D
:101103009087F1E0AA3FA940122A78AB3EAA3FA9F3
:1011130040122A5F2DFD74012540F540E4353FF56B
:101123003F9087F1A3E0AA3FA940122A78AB3EAAD9
:101133003FA940122A5F2DFD74012540F540E43597
:101143003FF53F9087F3E0AA3FA940122A78AB3ED0
:10115300AA3FA940122A5F2DFD74012540F540E402
:10116300353FF53F9087F3A3E0AA3FA940122A78C1
:10117300AB3EAA3FA940122A5F2DFD74012540F51D
:1011830040E4353FF53F9087F5E0AA3FA940122A96
:1011930078AB3EAA3FA940122A5F2DFD740125407A
:1011A300F540E4353FF53FFAA940749B122A787461
:1011B300012540F540E4353FF53FAB3EFAA94074C5
:1011C30068122A7874012540F540E4353FF53FABBA
:1011D3003EFAA940740F122A7874012540F540E4C1
:1011E300353FF53F9087F5A3E0AB3EAA3FA94012F8
:1011F3002A78AB3EAA3FA940122A5F2DFD74012530
:1012030040F540E4353FF53F9087F7E0AA3FA9401A
:10121300122A78AB3EAA3FA940122A5F2DFD740122
:101223002540F540E4353FF53F9087F7A3E0AA3F1B
:10123300A940122A78AB3EAA3FA940122A5F2DFD8E
:1012430074012540F540E4353FF53F9087F9E0AA66
:101253003FA940122A78AB3EAA3FA940122A5F2D2C
:10126300FD74012540F540E4353FF53F9087F9A330
:10127300E0AA3FA940122A78AB3EAA3FA940122A0E
:101283005F2DFD74012540F540E4353FF53F908027
:1012930012E0AA3FA940122A78AB3EAA3FA9401206
:1012A3002A5F2DFD74012540F540E4353FF53F905D
:1012B300801EE0AA3FA940122A78AB3EAA3FA9406C
:1012C300122A5F2DFD74012540F540E4353FF53FBB
:1012D300FAA940749B122A7874012540F540E4353D
:1012E3003FF53FAB3EFAA9407462122A7874012598
:1012F30040F540E4353FF53FAB3EFAA94074101288
:101303002A7874012540F540E4353FF53FAB3EFABA
:10131300A940ED122A7890894AE064AA70047455B2
:08132300F02290894A74AAF03F
:01132B00229F
:10705600753E01753F94754000754101754289750D
:10706600434DE4F544AB3EAA3FA940749B122A78EF
:1070760074012540F540E4353FF53FAB3EFAA940A3
:107086007468122A7874012540F540E4353FF53FCF
:10709600AB3EFAA940E4122A78042540F540E435CF
:1070A6003FF53FAB3EFAA9407429122A78740125B0
:1070B60040F540E4353FF53FAB3EFAA94074701207
:1070C6002A78AB3EAA3FA940122A5F2544F54474AC
:1070D600012540F540E4353FF53FE4FFEFC3940555
:1070E600748094805038AB41AA42A943122A5FAB00
:1070F6003EAA3FA940122A78AB3EAA3FA940122ACF
:107106005F2544F54474012540F540E4353FF53FDD
:1071160074012543F543E43542F5420F80BEE4FE93
:10712600EEC394057480948040030271BCAB3EAA02
:107136003FA940749B122A7874012540F540E43536
:107146003FF53FAB3EFAA9407468122A78740125D0
:1071560040F540E4353FF53FEE04AB3EAA3FA9407B
:10716600122A7874012540F540E4353FF53FE4FFE7
:10717600EFC39407748094805038AB41AA42A94368
:10718600122A5FAB3EAA3FA940122A78AB3EAA3F1D
:10719600A940122A5F2544F54474012540F540E4D0
:1071A600353FF53F74012543F543E43542F5420F7B
:1071B60080BE0E027126AB3EAA3FA940749B122ADE
:1071C6007874012540F540E4353FF53FAB3EFAA91A
:1071D600407463122A7874012540F540E4353FF582
:1071E6003FAB3EFAA9407406122A7874012540F591
:1071F60040E4353FF53FAB41AA42A943122A5FABB3
:107206003EAA3FA940122A78AB3EAA3FA940122ABD
:107216005F2544F54474012540F540E4353FF53FCC
:1072260074012543F543E43542F542AA3FA940E5FA
:0472360044022A786C
:107410009085B0E064AA60030275CC7455F0E5284D
:10742000FE7C00E42529F540EC3EF53F7B017A889F
:10743000798CE4F53E749B122A78740129F9E43AB8
:10744000FA7468122A78740129F9E43AFAE4122AE3
:10745000780429F9E43AFA7480122A78740129F937
:10746000E43AFA7490122A78122A5F253EF53E74A7
:107470000129F9E43AFAE4FFEFC39405748094809B
:10748000501974242FF8E6122A78122A5F253EF547
:107490003E740129F9E43AFA0F80DD749B122A78D0
:1074A000740129F9E43AFA7468122A78740129F906
:1074B000E43AFA7401122A7829F9E43AFAE4FFEF7F
:1074C000C3940374809480501974292FF8E6122A0B
:1074D00078122A5F253EF53E740129F9E43AFA0F45
:1074E00080DDE4FFEFC394047480948050238540D2
:1074F00082853F83E0122A78122A5F253EF53E748A
:107500000129F9E43AFA0540E5407002053F0F8091
:10751000D3E4FEEEC39410748094805057749B1291
:107520002A78740129F9E43AFA7468122A78740105
:1075300029F9E43AFAEE2402122A78740129F9E4CE
:107540003AFAE4FFEFC39407748094805023854097
:1075500082853F83E0122A78122A5F253EF53E7429
:107560000129F9E43AFA0540E5407002053F0F8031
:10757000D30E809F749B122A78740129F9E43AFA99
:107580007466122A78740129F9E43AFA7412122AFC
:1075900078740129F9E43AFAE4FFEFC394047480A3
:1075A00094805023854082853F83E0122A78122AF6
:1075B0005F253EF53E740129F9E43AFA0540E540BD
:0C75C0007002053F0F80D3E53E122A78D0
:0175CC00229C
:106A8100753E01753F8275408F7541017542847570
:106A910043B4E4F544AB3EAA3FA940749B122A7863
:106AA10074012540F540E4353FF53FAB3EFAA9407E
:106AB1007468122A7874012540F540E4353FF53FAA
:106AC100AB3EFAA940E4122A78042540F540E435AA
:106AD1003FF53FAB3EFAA94074DC122A78740125D8
:106AE10040F540E4353FF53FAB3EFAA94074D01282
:106AF1002A78AB3EAA3FA940122A5F2544F5447487
:106B0100012540F540E4353FF53FE4FFEFC394052F
:106B1100748094805038AB41AA42A943122A5FABDA
:106B21003EAA3FA940122A78AB3EAA3FA940122AA9
:106B31005F2544F54474012540F540E4353FF53FB8
:106B410074012543F543E43542F5420F80BEE4FE6E
:106B5100EEC3941E748094804003026BE7AB3EAA9F
:106B61003FA940749B122A7874012540F540E43511
:106B71003FF53FAB3EFAA9407468122A78740125AB
:106B810040F540E4353FF53FEE04AB3EAA3FA94056
:106B9100122A7874012540F540E4353FF53FE4FFC2
:106BA100EFC39407748094805038AB41AA42A94343
:106BB100122A5FAB3EAA3FA940122A78AB3EAA3FF8
:106BC100A940122A5F2544F54474012540F540E4AB
:106BD100353FF53F74012543F543E43542F5420F56
:106BE10080BE0E026B51AB3EAA3FA940749B122A94
:106BF1007874012540F540E4353FF53FAB3EFAA9F5
:106C0100407467122A7874012540F540E4353FF558
:106C11003FAB3EFAA940741F122A7874012540F552
:106C210040E4353FF53FE4FFEFC394057480948061
:106C31005038AB41AA42A943122A5FAB3EAA3FA9F1
:106C410040122A78AB3EAA3FA940122A5F2544F59B
:106C51004474012540F540E4353FF53F7401254377
:106C6100F543E43542F5420F80BEAB3EAA3FA94051
:056C7100E544022A7851
:108A7F00E49085ADF01283EB8F3E74EB64AA4483D0
:108A8F009085AD7006E04401F08004E054FEF012D2
:108A9F0085C8908856E064AA9085AD7006E04402C0
:108AAF00F08004E054FDF09085ADE0FF908259E036
:058ABF005F9085ADF0A1
:018AC400228F
:108C1100128B45128BB6128B7E127FAB1289081212
:0E8C21008957125CF5127C3A128B7E0261E3D9
:1061E300E49087ADF0A3F090883FE064AA700A9032
:1061F30087ADE04480F0A3E0F0908841E064AA70AA
:106203000A9087ADE04440F0A3E0F0908844E06456
:10621300AA700A9087ADE04420F0A3E0F09088498B
:10622300E064AA700A9087ADE04410F0A3E0F09018
:10623300884BE064AA700A9087ADE04408F0A3E0BD
:10624300F0908850E064AA700A9087ADE04404F0AF
:10625300A3E0F0908851E064AA700A9087ADE0440F
:1062630002F0A3E0F09087ACE064AA7008A3E044D6
:1062730001F0A3E0F09085BFE064AA70079087AEB9
:10628300E04480F07E009087A6E054037805C33392
:10629300CE33CED8F9FF9087ADE04EFEA3E04FFF9B
:1062A3009087ADEEF0FCA3EFF0FD7E009085E0E07B
:1062B30054037803C333CE33CED8F9FFEE4CFEEF4D
:1062C3004DFF9087ADEEF0A3EFF0908401E064AA58
:1062D30070079087AEE04402F0908402E064AA70F5
:1062E300079087AEE04401F0E49087DFF0A3F090DD
:1062F3008403E064AA700A9087DFE04480F0A3E09F
:10630300F0908404E064AA700A9087DFE04440F0D0
:10631300A3E0F0908405E064AA700A9087DFE0446C
:1063230020F0A3E0F0908406E064AA700A9087DF6F
:10633300E04410F0A3E0F0908407E064AA700A90B0
:1063430087DFE04408F0A3E0F0908408E064AA70DB
:106353000A9087DFE04404F0A3E0F0908409E0644E
:10636300AA700A9087DFE04402F0A3E0F090840E65
:10637300E064AA700A9087DFE04401F0A3E0F090A4
:10638300840FE064AA70079087E0E04480F0908473
:1063930010E064AA70079087E0E04440F090841115
:1063A300E064AA70079087E0E04420F0908412E054
:1063B30064AA70079087E0E04410F0908413E064CF
:1063C300AA70079087E0E04408F0908414E064AA80
:1063D30070079087E0E04404F0908415E064AA70AD
:1063E300079087E0E04402F0908416E064AA700707
:1063F3009087E0E04401F09085B2E0FEA3E0FF90D7
:1064030087ADE05EF0A3E05FF09085B4E0FEA3E02B
:0C641300FF9087DFE05EF0A3E05FF02266
:108B4500E4FFFE7D287C4290887E122B9674C0122D
:108B55002929601940179085B7E004F0E0D3940403
:108B650074809480401290883F74AAF02290883FC8
:098B75007455F0E49085B7F0227C
:108BB600E4FFFE7D187C4290887E122B9674C012CC
:108BC600292950169085B8E004F0E0940474809446
:108BD60080401290884174AAF0229088417455F022
:068BE600E49085B8F022C6
:108B7E009087DB122B7A908888122B9674C012295C
:108B8E0029601940179085B9E004F0E0D394107471
:108B9E00809480401290884474AAF0229088447485
:088BAE0055F0E49085B9F022B6
:107FAB0090884C122B7A908888122B9674C01229C9
:107FBB002950169085BEE004F0E0941074809480F4
:107FCB00401290884974AAF0229088497455F0E4C5
:057FDB009085BEF022BC
:108908007FCD7ECC7D9C7C40908884122B9674C051
:1089180012292940177F337E337DA37C40908884B9
:10892800122B9674C0122929601940179085CAE045
:1089380004F0E0D3940474809480401290884B74BF
:0F894800AAF02290884B7455F0E49085CAF02273
:10895700E4FFFE7D907C409087BF122B9674C01277
:10896700292960025014E4FFFE7D407C409087BFB8
:10897700122B9674C012292950179085CBE004F06A
:10898700E0D3940474809480401290885074AAF0C5
:0D899700229088507455F0E49085CBF022BA
:105CF500908754E0FCA3E0FDE41229A57BCD7ACC86
:105D050079CC783C1227819089C9122BC290874C97
:105D1500E0FCA3E0FDE41229A57BCD7ACC79CC7813
:105D25003C1227819089CD122BC2908744E0FCA3B9
:105D3500E0FDE41229A57BCD7ACC79CC783C1227FD
:105D4500819089D1122BC290875CE0FCA3E0FDE431
:105D55001229A57BCD7ACC79CC783C122781908904
:105D6500D5122BC2908756E0FCA3E0FDE41229A5CD
:105D75007BCD7ACC79CC783C1227819089D9122BAE
:105D8500C290874EE0FCA3E0FDE41229A57BCD7A05
:105D9500CC79CC783C1227819089DD122BC2908773
:105DA50046E0FCA3E0FDE41229A57BCD7ACC79CCB5
:105DB500783C1227819089E1122BC290875EE0FC26
:105DC500A3E0FDE41229A57BCD7ACC79CC783C12F1
:105DD50027819089E5122BC2908758E0FCA3E0FD4E
:105DE500E41229A57BCD7ACC79CC783C1227819019
:105DF50089E9122BC2908750E0FCA3E0FDE412294B
:105E0500A57BCD7ACC79CC783C1227819089ED128F
:105E15002BC2908748E0FCA3E0FDE41229A57BCDC9
:105E25007ACC79CC783C1227819089F1122BC290DB
:105E35008760E0FCA3E0FDE41229A57BCD7ACC794F
:105E4500CC783C1227819089F5122BC290875AE0B5
:105E5500FCA3E0FDE41229A57BCD7ACC79CC783C76
:105E65001227819089F9122BC2908752E0FCA3E09A
:105E7500FDE41229A57BCD7ACC79CC783C1227811B
:105E85009089FD122BC290874AE0FCA3E0FDE41245
:105E950029A57BCD7ACC79CC783C122781908A01D3
:105EA500122BC2908762E0FCA3E0FDE41229A57BDA
:105EB500CD7ACC79CC783C122781908A05122BC2F9
:105EC5009089C9122B7A9089C5122BC2753E01C3E0
:105ED500E53E941074809480503DE53E25E025E034
:105EE50024C9F582E43489F583122B7A9089C51289
:105EF5002B9674C0122929601A4018E53E25E02525
:105F0500E024C9F582E43489F583122B7A9089C59A
:105F1500122BC2053E80B8E4FFFE7D707C42908264
:105F250071122B9674C01229296040403EE4FFFE91
:105F35007DF07C40908265122B9674C01229295001
:105F45002AE4FFFE7DA07C409089C5122B9674C083
:105F550012292950169085CCE004F0E094F0748065
:105F65009480401290885174AAF0229088517455FB
:065F7500F0E49085CCF081
:015F7B002203
:107C3A00E4F53EC3E53E9409748094805073E53EB2
:107C4A0025E025E02423F582E43480F583122B7A9B
:107C5A00908590122B9674C012292960354033748E
:107C6A0009253EF582E43480F583E004F0740925A1
:107C7A003EF582E43480F583E0D3941074809480D6
:107C8A00402B7401253EF582E43484F58374AAF00E
:107C9A00801B7409253EF582E43480F583E4F07490
:107CAA0001253EF582E43484F5837455F0053E805F
:107CBA0082E4F53EC3E53E9409748094805071E5F0
:107CCA003E25E025E02423F582E43480F583122B57
:107CDA007A908283122B9674C01229295033741514
:107CEA00253EF582E43480F583E004F07415253EE0
:107CFA00F582E43480F583E0D39410748094804054
:107D0A002B740E253EF582E43484F58374AAF08040
:107D1A001B7415253EF582E43480F583E4F0740E75
:107D2A00253EF582E43484F5837455F0053E80845B
:017D3A002226
:098CCB00121D0F12003302741097
:107EE90090A000E0F54090C000E0F54190A002E0CC
:107EF900F53E90C002E0F53F052EE53E54026008CC
:107F0900128261128C2FD2A8E53F54026005128BB0
:107F1900ECD2A8E53E548064806006E540540270C6
:107F2900219089A9E004F0E0D3940F7480948040F3
:107F390016128261128C2FE49089A9F0D2A8D2AFCF
:107F49008005E49089A9F0E53F548064806006E5E6
:107F5900415402701E9089ACE004F0E0D3940F7490
:107F69008094804013128BECE49089ACF0D2A8D2B3
:107F7900AF8005E49089ACF0C3E52E940474809435
:107F890080401E7F327E00128C831282617F007EC8
:107F9900C0128267E4F52E128C2F128BF5D2A8D26B
:017FA900AF28
:017FAA0022B4
:108C4B00EF907B7B9390F800F0C2947FE07E15123F
:0B8C5B008C83128C8374FFF0D29422F3
:10132C00908842E0FF9087ABE0FE6F7003021D0EC9
:10133C0090859FE004F090886EE004F0908871E056
:10134C0004F0EE25E02477F582E43489F583E0128D
:10135C002C0B14A60114AB0214B00314B50414BA6C
:10136C000514BF0614C40714C90814CE0914D30AF3
:10137C0014D80B14DD0C14E20D14E70E14EC0F143E
:10138C00F11014F61114FB12150013150514150A9F
:10139C0015150F16151417151918151E1915231ACE
:1013AC0015281B152D1C15321D15421E15521F1507
:1013BC00622015722115822215922315A22415BBC9
:1013CC002515D42615ED27160628161F2916382A9A
:1013DC0016512B166A2C16832D169C2E16B52F160D
:1013EC00CE3016E731170032171933173234174B3A
:1013FC0035176436177D3717963817AF3917C83A33
:10140C0017E13B17FA3C18133D18173E181B3F18F1
:10141C001F40182341182742182B43182F44183308
:10142C0045183746183B47183F4818434918474A50
:10143C00184B4B184F4C18534D18574E185B4F18F0
:10144C005F50186751189A5218CD5319005419331C
:10145C005519665619995719CC5819FF591A325AF9
:10146C001A655B1A985C1ACB5D1AFE5E1B315F1B0A
:10147C0064601B97611BCA621BFD631BFD641C002F
:10148C00651C10661C1F671C2E681C8A691C9A6AD6
:10149C001CAA6B1CB46C00001CCA7F210218617F53
:1014AC00250218617F290218617F2D0218617F23A4
:1014BC000218617F270218617F2B0218617F2F02AF
:1014CC0018617F220218617F260218617F2A021898
:1014DC00617F2E0218617F240218617F2802186137
:1014EC007F2C0218617F300218617F050218617F22
:1014FC000E0218617F060218617F0F0218617F07C8
:10150C000218617F080218617F150218617F1E02A4
:10151C0018617F160218617F1F0218617F1702186D
:10152C00617F18021861907C22E49390E800F0909F
:10153C0088587401806E907C23E49390E800F090BE
:10154C0088587402805E907C24E49390E800F090BC
:10155C0088587403804E907C25E49390E800F090BA
:10156C0088587404803E907C26E49390E800F090B8
:10157C0088587405802E907C27E49390E800F090B6
:10158C0088587406801E907C28E49390E800F090B4
:10159C0088587407800E907C29E49390E800F090B2
:1015AC0088587408F090825EF0908264021C9790C8
:1015BC007C1AE49390E400F09088407401F09080E1
:1015CC0014F0908020021C97907C1BE49390E40014
:1015DC00F09088407402F0908014F0908020021CEF
:1015EC0097907C1CE49390E400F09088407403F096
:1015FC00908014F0908020021C97907C1DE49390B6
:10160C00E400F09088407404F0908014F0908020F6
:10161C00021C97907C1EE49390E400F09088407438
:10162C0005F0908014F0908020021C97907C1FE4B1
:10163C009390E400F09088407406F0908014F09041
:10164C008020021C97907C20E49390E400F090881A
:10165C00407407F0908014F0908020021C97907CCE
:10166C0021E49390E400F09088407408F09080148A
:10167C00F0908020021C97907C22E49390F000F074
:10168C0090885A7401F0908263F0908269021C97E2
:10169C00907C23E49390F000F090885A7402F090C0
:1016AC008263F0908269021C97907C24E49390F002
:1016BC0000F090885A7403F0908263F09082690273
:1016CC001C97907C25E49390F000F090885A740459
:1016DC00F0908263F0908269021C97907C26E493D0
:1016EC0090F000F090885A7405F0908263F090822C
:1016FC0069021C97907C27E49390F000F090885A34
:10170C007406F0908263F0908269021C97907C289A
:10171C00E49390F000F090885A7407F0908263F094
:10172C00908269021C97907C29E49390F000F090D1
:10173C00885A7408F0908263F0908269021C97902A
:10174C007C1AE49390EC00F09088437401F0908044
:10175C001FF0908022021C97907C1BE49390EC006D
:10176C00F09088437402F090801FF0908022021C4D
:10177C0097907C1CE49390EC00F09088437403F0F9
:10178C0090801FF0908022021C97907C1DE4939017
:10179C00EC00F09088437404F090801FF09080224D
:1017AC00021C97907C1EE49390EC00F0908843749C
:1017BC0005F090801FF0908022021C97907C1FE413
:1017CC009390EC00F09088437406F090801FF0909A
:1017DC008022021C97907C20E49390EC00F090887F
:1017EC00437407F090801FF0908022021C97907C2D
:1017FC0021E49390EC00F09088437408F090801FE3
:10180C00F0908022021C977F01804A7F1180467FD6
:10181C000A80427F1A803E7F02803A7F1280367F98
:10182C000B80327F1B802E7F03802A7F1380267FC4
:10183C000C80227F1C801E7F04801A7F1480167FF0
:10184C000D80127F1D800E7F09800A7F1080067F1D
:10185C001980027F20128C4B021CB9907BAEE49352
:10186C00FE740193FF90826FE025E02426F582E45C
:10187C003484F583EEF0A3EFF090826FE004F0E097
:10188C00D3942F748094804002E4F0021CB9907BB6
:10189C00C0E493FE740193FF90826FE025E0242650
:1018AC00F582E43484F583EEF0A3EFF090826FE0E0
:1018BC0004F0E0D3942F748094804002E4F0021C76
:1018CC00B9907BB0E493FE740193FF90826FE02596
:1018DC00E02426F582E43484F583EEF0A3EFF09057
:1018EC00826FE004F0E0D3942F748094804002E483
:1018FC00F0021CB9907BC2E493FE740193FF9082BA
:10190C006FE025E02426F582E43484F583EEF0A321
:10191C00EFF090826FE004F0E0D3942F7480948009
:10192C004002E4F0021CB9907BB2E493FE74019384
:10193C00FF90826FE025E02426F582E43484F58361
:10194C00EEF0A3EFF090826FE004F0E0D3942F74EC
:10195C008094804002E4F0021CB9907BC4E493FEB6
:10196C00740193FF90826FE025E02426F582E43425
:10197C0084F583EEF0A3EFF090826FE004F0E0D3F7
:10198C00942F748094804002E4F0021CB9907BB4D4
:10199C00E493FE740193FF90826FE025E02426F51A
:1019AC0082E43484F583EEF0A3EFF090826FE004D0
:1019BC00F0E0D3942F748094804002E4F0021CB9C0
:1019CC00907BC6E493FE740193FF90826FE025E058
:1019DC002426F582E43484F583EEF0A3EFF09082B4
:1019EC006FE004F0E0D3942F748094804002E4F014
:1019FC00021CB9907BB6E493FE740193FF90826F46
:101A0C00E025E02426F582E43484F583EEF0A3EFA0
:101A1C00F090826FE004F0E0D3942F7480948040B7
:101A2C0002E4F0021CB9907BC8E493FE740193FFAE
:101A3C0090826FE025E02426F582E43484F583EE71
:101A4C00F0A3EFF090826FE004F0E0D3942F748059
:101A5C0094804002E4F0021CB9907BB8E493FE74CD
:101A6C000193FF90826FE025E02426F582E4348414
:101A7C00F583EEF0A3EFF090826FE004F0E0D394E6
:101A8C002F748094804002E4F0021CB9907BCAE46D
:101A9C0093FE740193FF90826FE025E02426F5827B
:101AAC00E43484F583EEF0A3EFF090826FE004F061
:101ABC00E0D3942F748094804002E4F0021CB9901F
:101ACC007BBAE493FE740193FF90826FE025E024CF
:101ADC0026F582E43484F583EEF0A3EFF090826F68
:101AEC00E004F0E0D3942F748094804002E4F00280
:101AFC001CB9907BCCE493FE740193FF90826FE051
:101B0C0025E02426F582E43484F583EEF0A3EFF08F
:101B1C0090826FE004F0E0D3942F748094804002A4
:101B2C00E4F0021CB9907BBCE493FE740193FF902B
:101B3C00826FE025E02426F582E43484F583EEF010
:101B4C00A3EFF090826FE004F0E0D3942F748094B4
:101B5C00804002E4F0021CB9907BCEE493FE740149
:101B6C0093FF90826FE025E02426F582E43484F51F
:101B7C0083EEF0A3EFF090826FE004F0E0D3942FAB
:101B8C00748094804002E4F0021CB9907BBEE49314
:101B9C00FE740193FF90826FE025E02426F582E429
:101BAC003484F583EEF0A3EFF090826FE004F0E064
:101BBC00D3942F748094804002E4F0021CB9907B83
:101BCC00D0E493FE740193FF90826FE025E024260D
:101BDC00F582E43484F583EEF0A3EFF090826FE0AD
:101BEC0004F0E0D3942F748094804002E4F0021C43
:101BFC00B9021CB990848B74AAF0908861F090881B
:101C0C0067021C9790848B7455F0908861F09088D3
:101C1C0067807890885774AAF090859AF09085A088
:101C2C0080699088577455F090859AF09085A0F053
:101C3C00E4FDFCED25E0FFEC33FE74C02FF582745F
:101C4C007B3EF583E493FE740193FF90826FE02555
:101C5C00E02426F582E43484F583EEF0A3EFF090D3
:101C6C00826FE004F0E0D3942F748094804002E4FF
:101C7C00F00DBD00010CED64094C70B7802F9088FD
:101C8C007674AAF09085ACF09085AEF0801F9088A9
:101C9C00767455F09085ACF09085AEF0800F128282
:101CAC0061128C2FD2A88005128BECD2A89087A43D
:101CBC00E004F0908270E004F0908275800F9085C3
:101CCC00B1E004F0908976E004F09089A7E004F08C
:101CDC009087ABE0FF25E02477F582E43489F58327
:101CEC00E4F0EF25E02478F582E43489F583E4F020
:101CFC009087ABE004F0E0C39418748094804002A9
:021D0C00E4F001
:011D0E0022B2
:10814D008B3E8A3F8940AB41AA42A943122A5FFF69
:10815D00AB3EAA3FA940122A5FFEB5070FAB44AA5A
:10816D0045A946122A5FB507037FAA22AB41AA4251
:10817D00A943122A5FFDB50613C2AFAB3EAA3FA9B4
:10818D0040122A5FAB44AA45A9468035AB44AA45A7
:10819D00A946122A5FFEAB3EAA3FA940122A5FB53F
:1081AD00060AC2AFAB41AA42A9438015EDB5061927
:1081BD00C2AFAB41AA42A943122A5FAB3EAA3FA967
:0C81CD0040122A78D2AF7FAA227F5522F0
:067895008B3E8A3F894092
:10789B00AB41AA42A943122BA2C000C001C002C037
:1078AB0003AB3EAA3FA940122B40D003D002D0011C
:1078BB00D00012268C128CB29089C5122BC2AB440D
:1078CB00AA45A946122BA2C000C001C002C003AB3F
:1078DB003EAA3FA940122B40D003D002D001D000CA
:1078EB0012268C128CB29089C9122BC2AB44AA45BA
:1078FB00A946122BA2C000C001C002C003AB41AA13
:10790B0042A943122B40D003D002D001D000122643
:10791B008C128CB29089CD122BC27F177EB77DD182
:10792B007C389089C5122B9674C0122929502D7F53
:10793B00177EB77DD17C389089C9122B9674C012F3
:10794B00292950187F177EB77DD17C389089CD12AD
:10795B002B9674C012292950037FAA227F177EB75A
:10796B007DD17C389089C5122B9674C01229295071
:10797B0011AB3EAA3FA940122B40AB44AA45A946E6
:10798B00804A7F177EB77DD17C389089C9122B96A0
:10799B0074C01229295011AB3EAA3FA940122B40AB
:1079AB00AB41AA42A94380247F177EB77DD17C3897
:1079BB009089CD122B9674C01229295015AB41AA70
:1079CB0042A943122B40AB3EAA3FA940122B607F2A
:0479DB00AA227F5508
:0179DF002285
:108000008B3E8A3F8940AB41AA42A943122AB2FF64
:10801000AEF0AB3EAA3FA940122AB2B50725E5F063
:10802000B50620AB44AA45A946122AB2FFAEF0AB72
:1080300041AA42A943122AB2B50708E5F0B50603E2
:108040007FAA22AB41AA42A943122AB2FFAEF0ABEB
:108050003EAA3FA940122AB2FDACF0B5070CECB520
:108060000608AB44AA45A946804BAB44AA45A9469D
:10807000122AB2B5051AECB5F016AB3EAA3FA940DC
:10808000122AB2FFAB41AA42A943E5F08FF0802744
:10809000AB44AA45A946122AB2FFAEF0AB41AA42B0
:1080A000A943122AB2FDACF0B50712ECB5060EAB2F
:1080B0003EAA3FA9408DF0122ADD7FAA227F5522D9
:030013000285540F
:0B855400C0E0C083C082C0D075D0180A
:10855F0090E000E0F5479085CEE064AA702F90E0A0
:10856F0080E0FF90841BE0248CF582E43484F58353
:10857F00EFF090841BE004F0E0C3942774809480A4
:10858F00402ED2B0D290E4F09085CE80209085E13D
:10859F00E064AA701B9089A8E025E02426F582E408
:1085AF003484F583A3E090E000F09085E17455F0FA
:0985BF00D0D0D082D083D0E0328C
:0300030002880A66
:0D880A00C0E0C0F0C083C082C0D075D008AF
:1088170090A003E0F54854016401700990826E74DA
:10882700AAF01275CDE5485402640270031289A4B8
:1088370090C003E0F54854016401700990826E749A
:10884700BBF0127731E5485402640270031289EDD8
:0B885700D0D0D082D083D0F0D0E0322F
:0575CD00C0D075D008DC
:1075D20090A014E0649B600DE0645B6008E0644F7F
:1075E20060030277287F5590A015E0540FFEE05407
:1075F20020701A8E49754AA0754B16F535F536C3BB
:10760200E549940290804FF0752C018030EEC394CE
:1076120008748094805019C3EE9401F54990804F0C
:10762200E0FDC3E5369DF536E5359400F535800578
:107632007549077FAA754AA0754B170521E4FEEE2E
:10764200C39549502C854B82854A83E0FD744F25B2
:107652002CF582E43480F583EDF0ED2536F536E441
:107662003535F535054BE54B7002054A052C0E8084
:10767200CEEF64556003027728D3E52C9400748022
:1076820094805003027728744E252CF582E43480CE
:10769200F583E0FF7E00C3E5369FFD7535008D362C
:1076A200EF65367002E535707490804FE024036513
:1076B2002C706AF52EA3E024C0602524E0603924F2
:1076C20090604224F0604B24E0705290A014E06479
:1076D2009B704A908051E064107042126641803D76
:1076E20090A014E0645B70031282E790A014E0643F
:1076F2004F702A128468802590A014E0645B701D8C
:107702001286A6801890A014E0649B70101287580D
:10771200800B90A014E0645B7003128862E4F5357C
:0C772200F536F52CF52190A001740CF058
:03772E00D0D02296
:05773100C0D075D00876
:1077360090C014E0649B600DE0645B6008E0644FF9
:10774600600302788C7F5590C015E0540FFEE0541C
:1077560020701A8E49754AC0754B16F537F538C331
:10776600E5499402908154F0752D018030EEC39462
:1077760008748094805019C3EE9401F549908154A1
:10778600E0FDC3E5389DF538E5379400F53780050B
:107796007549077FAA754AC0754B170522E4FEEEA8
:1077A600C39549502C854B82854A83E0FD74542548
:1077B6002DF582E43481F583EDF0ED2538F538E4D6
:1077C6003537F537054BE54B7002054A052D0E801A
:1077D600CEEF6455600302788CD3E52D9400748057
:1077E6009480500302788C7453252DF582E43481FD
:1077F600F583E0FF7E00C3E5389FFD7537008D38C1
:10780600EF65387002E5377074908154E0240365A3
:107816002D706AF52EA3E024C0602524E06039248B
:1078260090604224F0604B24E0705290C014E064F3
:107836009B704A908156E064107042126861803DE8
:1078460090C014E0645B700312836990C014E06416
:107856004F702A1284DE802590C014E0645B701D90
:107866001286FF801890C014E0649B70101287B1D6
:10787600800B90C014E0645B70031288B5E4F537A2
:0C788600F538F52DF52290C001740CF0CF
:03789200D0D02231
:0589A400C0D075D008F1
:1089A900E53965336035E4FFEFC3940A7480948038
:1089B900501F853082852F83E0FE740A2FF582E4EB
:1089C90034A0F583EEF00530E5307002052F0F80F5
:1089D900D790A0017401F005398006753901753306
:0189E900018C
:0389EA00D0D022C8
:0589ED00C0D075D008A8
:1089F200E53A65346035E4FFEFC3940A74809480ED
:108A0200501F853282853183E0FE740A2FF582E49D
:108A120034C0F583EEF00532E532700205310F8085
:108A2200D790C0017401F0053A8006753A01753499
:018A32000142
:038A3300D0D0227E
:05664100C0D075D00877
:1066460090826E74AAF07D0A7CA0908052E024FEAF
:10665600606214700302670624A270030267422474
:10666600E1700302677E24C070030267BA24BF602C
:106676000302685E908882E064557008752F857500
:1066860030E28006752F90753000E4FFEFC3940A60
:1066960074809480501C853082852F83E08D828C97
:1066A60083F00DBD00010C0530E5307002052F0F9B
:1066B60080DA807A90894AE064557008752F86756D
:1066C60030288006752F92753000E4FFEFC3940AD8
:1066D60074809480501C853082852F83E08D828C57
:1066E60083F00DBD00010C0530E5307002052F0F5B
:1066F60080DA90A0017401F0F53975331102685EF5
:10670600752F94753000E4FFEFC3940A748094806B
:10671600501C853082852F83E08D828C83F00DBDE1
:1067260000010C0530E5307002052F0F80DA90A0CD
:10673600017401F0F53975330702685E752F8875A7
:10674600308CE4FFEFC3940A74809480501C85302B
:1067560082852F83E08D828C83F00DBD00010C05B0
:1067660030E5307002052F0F80DA90A0017401F039
:10677600F53975331302685E752F8275308FE4FF25
:10678600EFC3940A74809480501C853082852F83D1
:10679600E08D828C83F00DBD00010C0530E5307074
:1067A60002052F0F80DA90A0017401F0F5397533D8
:1067B6002002685EE4FE8D828C83749BF00DBD0022
:1067C600010C8D828C837444F00DBD00010C8D820A
:1067D6008C837410F0E02EFE0DBD00010CE52065E3
:1067E6003B604774CF253BF582E43485F583E0F9B9
:1067F6008D828C83F0E02EFE0DBD00010C8D828C07
